:020000020000FC
:1000000008E00EBF0FE50DBF0E941F000E94BD005B
:1000100001E60E94860002E60E94860008E40E9433
:10002000860005E60E9486000CE60E94860001E636
:100030000E9486000CE60E9486000C941D000FE7CB
:1000400004BB0E94E7000E947D000CE005BBAC9A57
:100050000E9480000E94BD000E947D0004E005BB5C
:10006000AC9A0E9480000E947D0001E005BBAC9A22
:100070000E9480000E94BD000E947D0004E005BB3C
:10008000AC9A0E9480000E947D0001E005BBAC9A02
:100090000E9480000E94BD000E947D0000E005BB20
:1000A000AC9A0E9480000E947D0003E005BBAC9AE0
:1000B0000E9480000E94BD000E947D0000E005BB00
:1000C000AC9A0E9480000E947D0008E005BBAC9ABB
:1000D0000E9480000E94D2000E947D0000E005BBCB
:1000E000AC9A0E9480000E947D0006E005BBAC9A9D
:1000F0000E9480000E94BD000895AE98AD980895BA
:100100000E94FC00AC980E940B0108950E94BD0063
:100110000F9306950695069506950E94A2008064A9
:1001200085BBAC9A0E9480000F910F930F700E94C4
:10013000A200806485BBAC9A0E9480000F910E944F
:10014000BD0008950F931F932F930F930570000F19
:10015000102F0F910A700695202F212B2F932370BB
:10016000220F220F122F2F912C7026952695212BCE
:10017000822F2F911F910F9108950F931F932F930B
:1001800001E012E123E92A95F1F71A95D9F70A95CA
:100190000000000000000000000099F72F911F915F
:1001A0000F9108950F931F932F9305E012E123E918
:1001B0002A95F1F71A95D9F70A950000000000007A
:1001C0000000000099F72F911F910F9108950F9350
:1001D0001F932F9302E312E123E92A95F1F71A9571
:1001E000D9F70A950000000000000000000099F710
:1001F0002F911F910F9108950F931F932F9301E05B
:100200000A9500000000000000000000C9F72F91CF
:100210001F910F9108950F931F932F9302E00A955A
:1002200000000000000000000000C9F72F911F919E
:040230000F9108958D
:00000001FF
